{
  "address": "0x9afFE57d5751d11929dA1cC6a4ff1cE70DF92E50",
  "abi": [
    {
      "inputs": [
        {
          "internalType": "address",
          "name": "_token",
          "type": "address"
        },
        {
          "internalType": "address",
          "name": "_operator",
          "type": "address"
        },
        {
          "internalType": "uint256",
          "name": "_minDelay",
          "type": "uint256"
        }
      ],
      "stateMutability": "nonpayable",
      "type": "constructor"
    },
    {
      "inputs": [],
      "name": "AlreadyDistributed",
      "type": "error"
    },
    {
      "inputs": [],
      "name": "InvalidOperator",
      "type": "error"
    },
    {
      "inputs": [],
      "name": "OnlyOperator",
      "type": "error"
    },
    {
      "inputs": [
        {
          "internalType": "address",
          "name": "owner",
          "type": "address"
        }
      ],
      "name": "OwnableInvalidOwner",
      "type": "error"
    },
    {
      "inputs": [
        {
          "internalType": "address",
          "name": "account",
          "type": "address"
        }
      ],
      "name": "OwnableUnauthorizedAccount",
      "type": "error"
    },
    {
      "inputs": [
        {
          "internalType": "bytes32",
          "name": "handle",
          "type": "bytes32"
        },
        {
          "internalType": "address",
          "name": "sender",
          "type": "address"
        }
      ],
      "name": "SenderNotAllowedToUseHandle",
      "type": "error"
    },
    {
      "inputs": [],
      "name": "TooEarly",
      "type": "error"
    },
    {
      "inputs": [],
      "name": "ZamaProtocolUnsupported",
      "type": "error"
    },
    {
      "anonymous": false,
      "inputs": [
        {
          "indexed": false,
          "internalType": "uint256",
          "name": "oldDelay",
          "type": "uint256"
        },
        {
          "indexed": false,
          "internalType": "uint256",
          "name": "newDelay",
          "type": "uint256"
        }
      ],
      "name": "MinDelayUpdated",
      "type": "event"
    },
    {
      "anonymous": false,
      "inputs": [
        {
          "indexed": true,
          "internalType": "address",
          "name": "oldOperator",
          "type": "address"
        },
        {
          "indexed": true,
          "internalType": "address",
          "name": "newOperator",
          "type": "address"
        }
      ],
      "name": "OperatorUpdated",
      "type": "event"
    },
    {
      "anonymous": false,
      "inputs": [
        {
          "indexed": true,
          "internalType": "address",
          "name": "previousOwner",
          "type": "address"
        },
        {
          "indexed": true,
          "internalType": "address",
          "name": "newOwner",
          "type": "address"
        }
      ],
      "name": "OwnershipTransferStarted",
      "type": "event"
    },
    {
      "anonymous": false,
      "inputs": [
        {
          "indexed": true,
          "internalType": "address",
          "name": "previousOwner",
          "type": "address"
        },
        {
          "indexed": true,
          "internalType": "address",
          "name": "newOwner",
          "type": "address"
        }
      ],
      "name": "OwnershipTransferred",
      "type": "event"
    },
    {
      "anonymous": false,
      "inputs": [
        {
          "indexed": true,
          "internalType": "uint256",
          "name": "index",
          "type": "uint256"
        },
        {
          "indexed": false,
          "internalType": "uint256",
          "name": "timestamp",
          "type": "uint256"
        }
      ],
      "name": "TransferDistributed",
      "type": "event"
    },
    {
      "anonymous": false,
      "inputs": [
        {
          "indexed": true,
          "internalType": "uint256",
          "name": "index",
          "type": "uint256"
        },
        {
          "indexed": true,
          "internalType": "address",
          "name": "sender",
          "type": "address"
        },
        {
          "indexed": false,
          "internalType": "uint256",
          "name": "timestamp",
          "type": "uint256"
        }
      ],
      "name": "TransferQueued",
      "type": "event"
    },
    {
      "inputs": [],
      "name": "acceptOwnership",
      "outputs": [],
      "stateMutability": "nonpayable",
      "type": "function"
    },
    {
      "inputs": [
        {
          "internalType": "uint256[]",
          "name": "indices",
          "type": "uint256[]"
        },
        {
          "internalType": "address[]",
          "name": "recipients",
          "type": "address[]"
        }
      ],
      "name": "batchDistribute",
      "outputs": [],
      "stateMutability": "nonpayable",
      "type": "function"
    },
    {
      "inputs": [],
      "name": "confidentialProtocolId",
      "outputs": [
        {
          "internalType": "uint256",
          "name": "",
          "type": "uint256"
        }
      ],
      "stateMutability": "view",
      "type": "function"
    },
    {
      "inputs": [
        {
          "internalType": "uint256",
          "name": "index",
          "type": "uint256"
        },
        {
          "internalType": "address",
          "name": "recipient",
          "type": "address"
        }
      ],
      "name": "distribute",
      "outputs": [],
      "stateMutability": "nonpayable",
      "type": "function"
    },
    {
      "inputs": [
        {
          "internalType": "uint256",
          "name": "index",
          "type": "uint256"
        }
      ],
      "name": "getEncryptedAmount",
      "outputs": [
        {
          "internalType": "euint64",
          "name": "",
          "type": "bytes32"
        }
      ],
      "stateMutability": "view",
      "type": "function"
    },
    {
      "inputs": [
        {
          "internalType": "uint256",
          "name": "index",
          "type": "uint256"
        }
      ],
      "name": "getEncryptedRecipient",
      "outputs": [
        {
          "internalType": "eaddress",
          "name": "",
          "type": "bytes32"
        }
      ],
      "stateMutability": "view",
      "type": "function"
    },
    {
      "inputs": [
        {
          "internalType": "uint256",
          "name": "index",
          "type": "uint256"
        }
      ],
      "name": "getTransferInfo",
      "outputs": [
        {
          "internalType": "address",
          "name": "sender",
          "type": "address"
        },
        {
          "internalType": "uint256",
          "name": "timestamp",
          "type": "uint256"
        },
        {
          "internalType": "bool",
          "name": "distributed",
          "type": "bool"
        }
      ],
      "stateMutability": "view",
      "type": "function"
    },
    {
      "inputs": [],
      "name": "minDelay",
      "outputs": [
        {
          "internalType": "uint256",
          "name": "",
          "type": "uint256"
        }
      ],
      "stateMutability": "view",
      "type": "function"
    },
    {
      "inputs": [],
      "name": "operator",
      "outputs": [
        {
          "internalType": "address",
          "name": "",
          "type": "address"
        }
      ],
      "stateMutability": "view",
      "type": "function"
    },
    {
      "inputs": [],
      "name": "owner",
      "outputs": [
        {
          "internalType": "address",
          "name": "",
          "type": "address"
        }
      ],
      "stateMutability": "view",
      "type": "function"
    },
    {
      "inputs": [],
      "name": "pendingOwner",
      "outputs": [
        {
          "internalType": "address",
          "name": "",
          "type": "address"
        }
      ],
      "stateMutability": "view",
      "type": "function"
    },
    {
      "inputs": [
        {
          "internalType": "uint256",
          "name": "",
          "type": "uint256"
        }
      ],
      "name": "queue",
      "outputs": [
        {
          "internalType": "eaddress",
          "name": "encRecipient",
          "type": "bytes32"
        },
        {
          "internalType": "euint64",
          "name": "encAmount",
          "type": "bytes32"
        },
        {
          "internalType": "address",
          "name": "sender",
          "type": "address"
        },
        {
          "internalType": "uint256",
          "name": "timestamp",
          "type": "uint256"
        },
        {
          "internalType": "bool",
          "name": "distributed",
          "type": "bool"
        }
      ],
      "stateMutability": "view",
      "type": "function"
    },
    {
      "inputs": [],
      "name": "queueLength",
      "outputs": [
        {
          "internalType": "uint256",
          "name": "",
          "type": "uint256"
        }
      ],
      "stateMutability": "view",
      "type": "function"
    },
    {
      "inputs": [
        {
          "internalType": "externalEaddress",
          "name": "encRecipient",
          "type": "bytes32"
        },
        {
          "internalType": "externalEuint64",
          "name": "encAmount",
          "type": "bytes32"
        },
        {
          "internalType": "bytes",
          "name": "inputProof",
          "type": "bytes"
        }
      ],
      "name": "queueTransfer",
      "outputs": [],
      "stateMutability": "nonpayable",
      "type": "function"
    },
    {
      "inputs": [],
      "name": "renounceOwnership",
      "outputs": [],
      "stateMutability": "nonpayable",
      "type": "function"
    },
    {
      "inputs": [
        {
          "internalType": "uint256",
          "name": "_minDelay",
          "type": "uint256"
        }
      ],
      "name": "setMinDelay",
      "outputs": [],
      "stateMutability": "nonpayable",
      "type": "function"
    },
    {
      "inputs": [
        {
          "internalType": "address",
          "name": "_operator",
          "type": "address"
        }
      ],
      "name": "setOperator",
      "outputs": [],
      "stateMutability": "nonpayable",
      "type": "function"
    },
    {
      "inputs": [],
      "name": "token",
      "outputs": [
        {
          "internalType": "contract ICERC20",
          "name": "",
          "type": "address"
        }
      ],
      "stateMutability": "view",
      "type": "function"
    },
    {
      "inputs": [
        {
          "internalType": "address",
          "name": "newOwner",
          "type": "address"
        }
      ],
      "name": "transferOwnership",
      "outputs": [],
      "stateMutability": "nonpayable",
      "type": "function"
    }
  ],
  "transactionHash": "0x4fe479ca84d49f9be9f2b3d22278bd2d07705f166e59dea6dd194da8f67d9d74",
  "args": [
    "0xb01DDDa550C5aA2624d1D0aF0D4A6826350C49F2",
    "0x026ba0AA63686278C3b3b3b9C43bEdD8421E36Cd",
    300
  ],
  "numDeployments": 1,
  "solcInputHash": "0d4171c17f2028eee002f57ab1f92791",
  "bytecode": "0x608060405234801561000f575f5ffd5b506040516117ae3803806117ae83398101604081905261002e91610382565b336100e361003a610152565b80517f9e7b61f58c47dc699ac88507c4f5bb9f121c03808c5676a8078fe583e464970080546001600160a01b03199081166001600160a01b039384161790915560208301517f9e7b61f58c47dc699ac88507c4f5bb9f121c03808c5676a8078fe583e46497018054831691841691909117905560408301517f9e7b61f58c47dc699ac88507c4f5bb9f121c03808c5676a8078fe583e46497028054909216921691909117905550565b6001600160a01b03811661011057604051631e4fbdf760e01b81525f600482015260240160405180910390fd5b61011981610304565b50600280546001600160a01b039485166001600160a01b03199182161790915560038054939094169216919091179091556004556103bb565b604080516060810182525f8082526020820181905291810191909152466001036101eb575060408051606080820183525f8083526020808401829052928401528251908101835273ca2e8f1f656cd25c01f05d0b243ab1ecd4a8ffb6815273d82385dada1ae3e969447f20a3164f6213100e75918101919091527377627828a55156b04ac0dc0eb30467f1a552bb039181019190915290565b4662aa36a70361026a575060408051606080820183525f8083526020808401829052928401528251908101835273f0ffdc93b7e186bc2f8cb3daa75d86d1930a433d81527392c920834ec8941d2c77d188936e1f7a6f49c1279181019190915273be0e383937d564d7ff0bc3b46c51f0bf8d5c311a9181019190915290565b46617a69036102e8575060408051606080820183525f808352602080840182905292840152825190810183527350157cffd6bbfa2dece204a89ec419c23ef5755d815273e3a9105a3a932253a70f126eb1e3b589c643dd249181019190915273901f8942346f7ab3a01f6d7613119bca447bb0309181019190915290565b6040516373cac13b60e01b815260040160405180910390fd5b50565b600180546001600160a01b0319169055610301815f80546001600160a01b038381166001600160a01b0319831681178455604051919092169283917f8be0079c531659141344cd1fd0a4f28419497f9722a3daafe3b4186f6b6457e09190a35050565b80516001600160a01b038116811461037d575f5ffd5b919050565b5f5f5f60608486031215610394575f5ffd5b61039d84610367565b92506103ab60208501610367565b9150604084015190509250925092565b6113e6806103c85f395ff3fe608060405234801561000f575f5ffd5b5060043610610149575f3560e01c8063b3ab15fb116100c7578063e1fa8b021161007d578063e383b00611610063578063e383b006146102ce578063f2fde38b146102e1578063fc0c546a146102f4575f5ffd5b8063e1fa8b02146102aa578063e30c3978146102bd575f5ffd5b8063c63c4e9b116100ad578063c63c4e9b14610243578063d323d4031461024c578063ddf0b0091461025f575f5ffd5b8063b3ab15fb1461021d578063ba29482f14610230575f5ffd5b8063715018a61161011c5780638927b030116101025780638927b030146101fd5780638da5cb5b14610205578063ab91c7b014610215575f5ffd5b8063715018a6146101eb57806379ba5097146101f5575f5ffd5b80631261c8171461014d5780632c17f1b114610173578063570ca735146101865780635f18bb25146101b1575b5f5ffd5b61016061015b366004611136565b610307565b6040519081526020015b60405180910390f35b610160610181366004611136565b610331565b600354610199906001600160a01b031681565b6040516001600160a01b03909116815260200161016a565b6101c46101bf366004611136565b61035c565b604080516001600160a01b039094168452602084019290925215159082015260600161016a565b6101f36103ac565b005b6101f36103bf565b610160610408565b5f546001600160a01b0316610199565b600554610160565b6101f361022b366004611168565b610416565b6101f361023e366004611136565b6104a0565b61016060045481565b6101f361025a3660046111d0565b6104e9565b61027261026d366004611136565b610753565b6040805195865260208601949094526001600160a01b039092169284019290925260608301919091521515608082015260a00161016a565b6101f36102b836600461123c565b61079f565b6001546001600160a01b0316610199565b6101f36102dc366004611266565b61092d565b6101f36102ef366004611168565b610be6565b600254610199906001600160a01b031681565b5f6005828154811061031b5761031b6112e2565b905f5260205f2090600502015f01549050919050565b5f60058281548110610345576103456112e2565b905f5260205f209060050201600101549050919050565b5f5f5f5f60058581548110610373576103736112e2565b5f9182526020909120600590910201600281015460038201546004909201546001600160a01b039091169791965060ff16945092505050565b6103b4610c56565b6103bd5f610c82565b565b60015433906001600160a01b031681146103fc5760405163118cdaa760e01b81526001600160a01b03821660048201526024015b60405180910390fd5b61040581610c82565b50565b5f610411610c9b565b905090565b61041e610c56565b6001600160a01b0381166104455760405163ccea9e6f60e01b815260040160405180910390fd5b6003546040516001600160a01b038084169216907ffbe5b6cbafb274f445d7fed869dc77a838d8243a22c460de156560e8857cad03905f90a3600380546001600160a01b0319166001600160a01b0392909216919091179055565b6104a8610c56565b60045460408051918252602082018390527f2077aa4cabbdf22e003752854fd58bb19dad1171bc2fa83a0fb6033421e17e7a910160405180910390a1600455565b6003546001600160a01b03163314610514576040516327e1f1e560e01b815260040160405180910390fd5b8281146105635760405162461bcd60e51b815260206004820152600f60248201527f4c656e677468206d69736d61746368000000000000000000000000000000000060448201526064016103f3565b5f5b8381101561074c575f6005868684818110610582576105826112e2565b9050602002013581548110610599576105996112e2565b5f9182526020909120600590910201600481015490915060ff16156105d15760405163cce553a960e01b815260040160405180910390fd5b60045481600301546105e391906112f6565b4210156106035760405163085de62560e01b815260040160405180910390fd5b60048101805460ff1916600190811790915581015460025461062e91906001600160a01b0316610ccf565b506002546001600160a01b0316635bebed7e858585818110610652576106526112e2565b90506020020160208101906106679190611168565b60018401546040517fffffffff0000000000000000000000000000000000000000000000000000000060e085901b1681526001600160a01b03909216600483015260248201526044016020604051808303815f875af11580156106cc573d5f5f3e3d5ffd5b505050506040513d601f19601f820116820180604052508101906106f09190611315565b50858583818110610703576107036112e2565b905060200201357f8d8d9c75b6c90266ba24cf9c94c358562cff2655c07a31fdd822af4a8892424b4260405161073b91815260200190565b60405180910390a250600101610565565b5050505050565b60058181548110610762575f80fd5b5f9182526020909120600590910201805460018201546002830154600384015460049094015492945090926001600160a01b039091169160ff1685565b6003546001600160a01b031633146107ca576040516327e1f1e560e01b815260040160405180910390fd5b5f600583815481106107de576107de6112e2565b5f9182526020909120600590910201600481015490915060ff16156108165760405163cce553a960e01b815260040160405180910390fd5b600454816003015461082891906112f6565b4210156108485760405163085de62560e01b815260040160405180910390fd5b60048101805460ff1916600190811790915581015460025461087391906001600160a01b0316610ccf565b506002546001820154604051632df5f6bf60e11b81526001600160a01b0385811660048301526024820192909252911690635bebed7e906044016020604051808303815f875af11580156108c9573d5f5f3e3d5ffd5b505050506040513d601f19601f820116820180604052508101906108ed9190611315565b50827f8d8d9c75b6c90266ba24cf9c94c358562cff2655c07a31fdd822af4a8892424b4260405161092091815260200190565b60405180910390a2505050565b5f61096d8584848080601f0160208091040260200160405190810160405280939291908181526020018383808284375f92019190915250610cf492505050565b90505f6109af8585858080601f0160208091040260200160405190810160405280939291908181526020018383808284375f92019190915250610d5a92505050565b6002549091506109c99082906001600160a01b0316610ccf565b5060025460405163eb3155b560e01b8152336004820152306024820152604481018390525f916001600160a01b03169063eb3155b5906064016020604051808303815f875af1158015610a1e573d5f5f3e3d5ffd5b505050506040513d601f19601f82011682018060405250810190610a429190611315565b600580546040805160a081018252878152602081018581523392820192835242606083019081525f608084018181526001870188559087905292517f036b6384b5eca791c62761152d0c79bb0604c104a5fb6f4eb0703f3154bb3db09686029687015590517f036b6384b5eca791c62761152d0c79bb0604c104a5fb6f4eb0703f3154bb3db186015591517f036b6384b5eca791c62761152d0c79bb0604c104a5fb6f4eb0703f3154bb3db2850180546001600160a01b0319166001600160a01b0392831617905591517f036b6384b5eca791c62761152d0c79bb0604c104a5fb6f4eb0703f3154bb3db3850155517f036b6384b5eca791c62761152d0c79bb0604c104a5fb6f4eb0703f3154bb3db4909301805460ff19169315159390931790925560035492935091610b7891869116610d81565b50600354610b909083906001600160a01b0316610ccf565b50610b9a84610d90565b50610ba482610db0565b50604051428152339082907fd542688fd1b0a2f5ec14e5a1f28a578fe3f2cf4020ed1a34e8e53aff23377e6d9060200160405180910390a35050505050505050565b610bee610c56565b600180546001600160a01b0383166001600160a01b03199091168117909155610c1e5f546001600160a01b031690565b6001600160a01b03167f38d16b8cac22d99fc7c124b9cd0de2d3fa1faef420bfe791d8c362d765e2270060405160405180910390a350565b5f546001600160a01b031633146103bd5760405163118cdaa760e01b81523360048201526024016103f3565b600180546001600160a01b031916905561040581610dbf565b5f46600103610caa5750600190565b4662aa36a703610cbb575061271190565b46617a6903610cca57505f1990565b505f90565b5f82610ce157610cde5f610e0e565b92505b610ceb8383610e24565b50815b92915050565b5f81515f14610d1057610d0983836007610ead565b9050610cee565b825f819003610d2a57610d225f610fcd565b915050610cee565b610d348133610fe2565b610d0957604051630276b5d960e01b8152600481018290523360248201526044016103f3565b5f81515f14610d6f57610d0983836005610ead565b825f819003610d2a57610d225f610e0e565b5f82610ce157610cde5f610fcd565b5f81610da257610d9f5f610fcd565b91505b610dac8230610e24565b5090565b5f81610da257610d9f5f610e0e565b5f80546001600160a01b038381166001600160a01b0319831681178455604051919092169283917f8be0079c531659141344cd1fd0a4f28419497f9722a3daafe3b4186f6b6457e09190a35050565b5f610cee8267ffffffffffffffff166005611081565b5f7f9e7b61f58c47dc699ac88507c4f5bb9f121c03808c5676a8078fe583e46497008054604051635ca4b5b160e11b8152600481018690526001600160a01b03858116602483015292935091169063b9496b62906044015f604051808303815f87803b158015610e92575f5ffd5b505af1158015610ea4573d5f5f3e3d5ffd5b50505050505050565b7f9e7b61f58c47dc699ac88507c4f5bb9f121c03808c5676a8078fe583e46497015460405163045fc19560e11b81525f917f9e7b61f58c47dc699ac88507c4f5bb9f121c03808c5676a8078fe583e4649700916001600160a01b03909116906308bf832a90610f2690889033908990899060040161134c565b6020604051808303815f875af1158015610f42573d5f5f3e3d5ffd5b505050506040513d601f19601f82011682018060405250810190610f669190611315565b8154604051630f8e573b60e21b8152600481018390523360248201529193506001600160a01b031690633e395cec906044015f604051808303815f87803b158015610faf575f5ffd5b505af1158015610fc1573d5f5f3e3d5ffd5b50505050509392505050565b5f610cee826001600160a01b03166007611081565b5f807f9e7b61f58c47dc699ac88507c4f5bb9f121c03808c5676a8078fe583e464970080546040516382027b6d60e01b8152600481018790526001600160a01b0386811660248301529293509116906382027b6d90604401602060405180830381865afa158015611055573d5f5f3e3d5ffd5b505050506040513d601f19601f8201168201806040525081019061107991906113a6565b949350505050565b7f9e7b61f58c47dc699ac88507c4f5bb9f121c03808c5676a8078fe583e464970154604051639cd07acb60e01b81525f917f9e7b61f58c47dc699ac88507c4f5bb9f121c03808c5676a8078fe583e4649700916001600160a01b0390911690639cd07acb906110f690879087906004016113c5565b6020604051808303815f875af1158015611112573d5f5f3e3d5ffd5b505050506040513d601f19601f820116820180604052508101906110799190611315565b5f60208284031215611146575f5ffd5b5035919050565b80356001600160a01b0381168114611163575f5ffd5b919050565b5f60208284031215611178575f5ffd5b6111818261114d565b9392505050565b5f5f83601f840112611198575f5ffd5b50813567ffffffffffffffff8111156111af575f5ffd5b6020830191508360208260051b85010111156111c9575f5ffd5b9250929050565b5f5f5f5f604085870312156111e3575f5ffd5b843567ffffffffffffffff8111156111f9575f5ffd5b61120587828801611188565b909550935050602085013567ffffffffffffffff811115611224575f5ffd5b61123087828801611188565b95989497509550505050565b5f5f6040838503121561124d575f5ffd5b8235915061125d6020840161114d565b90509250929050565b5f5f5f5f60608587031215611279575f5ffd5b8435935060208501359250604085013567ffffffffffffffff81111561129d575f5ffd5b8501601f810187136112ad575f5ffd5b803567ffffffffffffffff8111156112c3575f5ffd5b8760208284010111156112d4575f5ffd5b949793965060200194505050565b634e487b7160e01b5f52603260045260245ffd5b80820180821115610cee57634e487b7160e01b5f52601160045260245ffd5b5f60208284031215611325575f5ffd5b5051919050565b6054811061134857634e487b7160e01b5f52602160045260245ffd5b9052565b8481526001600160a01b0384166020820152608060408201525f8351806080840152806020860160a085015e5f60a0828501015260a0601f19601f83011684010191505061139d606083018461132c565b95945050505050565b5f602082840312156113b6575f5ffd5b81518015158114611181575f5ffd5b82815260408101611181602083018461132c56fea164736f6c634300081b000a",
  "devdoc": {
    "details": "Flow:   1. Sender calls setOperator(pool, until) on CERC20 to authorize the pool   2. Sender calls queueTransfer(encRecipient, encAmount, inputProof)      - Pool pulls tokens from sender via confidentialTransferFrom      - Encrypted recipient + amount stored in queue   3. TEE operator reads the queue, decrypts recipient off-chain   4. TEE calls distribute(index, recipient, ...) to send from pool to recipient On-chain, observers see:   - sender → pool (encrypted amount, encrypted recipient)   - pool → recipient (encrypted amount)   These happen at different times, breaking temporal correlation.",
    "errors": {
      "OwnableInvalidOwner(address)": [
        {
          "details": "The owner is not a valid owner account. (eg. `address(0)`)"
        }
      ],
      "OwnableUnauthorizedAccount(address)": [
        {
          "details": "The caller account is not authorized to perform an operation."
        }
      ]
    },
    "kind": "dev",
    "methods": {
      "acceptOwnership()": {
        "details": "The new owner accepts the ownership transfer."
      },
      "batchDistribute(uint256[],address[])": {
        "params": {
          "indices": "Array of queue indices",
          "recipients": "Array of decrypted recipient addresses"
        }
      },
      "constructor": {
        "params": {
          "_minDelay": "Minimum seconds between queue and distribute (e.g. 300 = 5 min)",
          "_operator": "The TEE operator wallet address",
          "_token": "The CERC20 token address"
        }
      },
      "distribute(uint256,address)": {
        "params": {
          "index": "Index in the queue",
          "recipient": "The decrypted recipient address (known only to TEE)"
        }
      },
      "owner()": {
        "details": "Returns the address of the current owner."
      },
      "pendingOwner()": {
        "details": "Returns the address of the pending owner."
      },
      "queueTransfer(bytes32,bytes32,bytes)": {
        "params": {
          "encAmount": "Encrypted transfer amount (euint64 input)",
          "encRecipient": "Encrypted recipient address (eaddress input)",
          "inputProof": "FHE input proof for both encrypted values"
        }
      },
      "renounceOwnership()": {
        "details": "Leaves the contract without owner. It will not be possible to call `onlyOwner` functions. Can only be called by the current owner. NOTE: Renouncing ownership will leave the contract without an owner, thereby disabling any functionality that is only available to the owner."
      },
      "transferOwnership(address)": {
        "details": "Starts the ownership transfer of the contract to a new account. Replaces the pending transfer if there is one. Can only be called by the current owner. Setting `newOwner` to the zero address is allowed; this can be used to cancel an initiated ownership transfer."
      }
    },
    "title": "BagelPool - Privacy Pool for Confidential Token Transfers",
    "version": 1
  },
  "userdoc": {
    "errors": {
      "SenderNotAllowedToUseHandle(bytes32,address)": [
        {
          "notice": "Returned if the sender is not allowed to use the handle."
        }
      ],
      "ZamaProtocolUnsupported()": [
        {
          "notice": "Returned if the Zama protocol is not supported on the current chain"
        }
      ]
    },
    "kind": "user",
    "methods": {
      "batchDistribute(uint256[],address[])": {
        "notice": "Batch distribute multiple queued transfers"
      },
      "distribute(uint256,address)": {
        "notice": "Distribute a queued transfer to its recipient.         Called by the TEE operator after decrypting the recipient off-chain."
      },
      "getEncryptedAmount(uint256)": {
        "notice": "Get the encrypted amount handle for a queued transfer"
      },
      "getEncryptedRecipient(uint256)": {
        "notice": "Get the encrypted recipient handle for a queued transfer"
      },
      "getTransferInfo(uint256)": {
        "notice": "Get transfer status (non-encrypted fields only)"
      },
      "minDelay()": {
        "notice": "Minimum delay before a queued transfer can be distributed (privacy)"
      },
      "operator()": {
        "notice": "TEE operator address (the only address that can call distribute)"
      },
      "queue(uint256)": {
        "notice": "Queue of pending transfers"
      },
      "queueLength()": {
        "notice": "Get total number of queued transfers"
      },
      "queueTransfer(bytes32,bytes32,bytes)": {
        "notice": "Queue a private transfer. The sender must have called         token.setOperator(address(this), until) beforehand."
      },
      "setMinDelay(uint256)": {
        "notice": "Update minimum delay between queue and distribute"
      },
      "setOperator(address)": {
        "notice": "Update the TEE operator address"
      },
      "token()": {
        "notice": "The confidential ERC20 token"
      }
    },
    "notice": "Breaks the on-chain link between sender and recipient.         Sender deposits to the pool with an encrypted recipient address.         A TEE operator later distributes to the actual recipients.",
    "version": 1
  },
  "storageLayout": {
    "storage": [
      {
        "astId": 42164,
        "contract": "contracts/BagelPool.sol:BagelPool",
        "label": "_owner",
        "offset": 0,
        "slot": "0",
        "type": "t_address"
      },
      {
        "astId": 42312,
        "contract": "contracts/BagelPool.sol:BagelPool",
        "label": "_pendingOwner",
        "offset": 0,
        "slot": "1",
        "type": "t_address"
      },
      {
        "astId": 43723,
        "contract": "contracts/BagelPool.sol:BagelPool",
        "label": "token",
        "offset": 0,
        "slot": "2",
        "type": "t_contract(ICERC20)43714"
      },
      {
        "astId": 43726,
        "contract": "contracts/BagelPool.sol:BagelPool",
        "label": "operator",
        "offset": 0,
        "slot": "3",
        "type": "t_address"
      },
      {
        "astId": 43729,
        "contract": "contracts/BagelPool.sol:BagelPool",
        "label": "minDelay",
        "offset": 0,
        "slot": "4",
        "type": "t_uint256"
      },
      {
        "astId": 43734,
        "contract": "contracts/BagelPool.sol:BagelPool",
        "label": "queue",
        "offset": 0,
        "slot": "5",
        "type": "t_array(t_struct(Transfer)43747_storage)dyn_storage"
      }
    ],
    "types": {
      "t_address": {
        "encoding": "inplace",
        "label": "address",
        "numberOfBytes": "20"
      },
      "t_array(t_struct(Transfer)43747_storage)dyn_storage": {
        "base": "t_struct(Transfer)43747_storage",
        "encoding": "dynamic_array",
        "label": "struct BagelPool.Transfer[]",
        "numberOfBytes": "32"
      },
      "t_bool": {
        "encoding": "inplace",
        "label": "bool",
        "numberOfBytes": "1"
      },
      "t_contract(ICERC20)43714": {
        "encoding": "inplace",
        "label": "contract ICERC20",
        "numberOfBytes": "20"
      },
      "t_struct(Transfer)43747_storage": {
        "encoding": "inplace",
        "label": "struct BagelPool.Transfer",
        "members": [
          {
            "astId": 43737,
            "contract": "contracts/BagelPool.sol:BagelPool",
            "label": "encRecipient",
            "offset": 0,
            "slot": "0",
            "type": "t_userDefinedValueType(eaddress)44453"
          },
          {
            "astId": 43740,
            "contract": "contracts/BagelPool.sol:BagelPool",
            "label": "encAmount",
            "offset": 0,
            "slot": "1",
            "type": "t_userDefinedValueType(euint64)44339"
          },
          {
            "astId": 43742,
            "contract": "contracts/BagelPool.sol:BagelPool",
            "label": "sender",
            "offset": 0,
            "slot": "2",
            "type": "t_address"
          },
          {
            "astId": 43744,
            "contract": "contracts/BagelPool.sol:BagelPool",
            "label": "timestamp",
            "offset": 0,
            "slot": "3",
            "type": "t_uint256"
          },
          {
            "astId": 43746,
            "contract": "contracts/BagelPool.sol:BagelPool",
            "label": "distributed",
            "offset": 0,
            "slot": "4",
            "type": "t_bool"
          }
        ],
        "numberOfBytes": "160"
      },
      "t_uint256": {
        "encoding": "inplace",
        "label": "uint256",
        "numberOfBytes": "32"
      },
      "t_userDefinedValueType(eaddress)44453": {
        "encoding": "inplace",
        "label": "eaddress",
        "numberOfBytes": "32"
      },
      "t_userDefinedValueType(euint64)44339": {
        "encoding": "inplace",
        "label": "euint64",
        "numberOfBytes": "32"
      }
    }
  }
}