{
  "address": "0xb01DDDa550C5aA2624d1D0aF0D4A6826350C49F2",
  "abi": [
    {
      "inputs": [
        {
          "internalType": "uint64",
          "name": "initialSupply",
          "type": "uint64"
        },
        {
          "internalType": "string",
          "name": "name_",
          "type": "string"
        },
        {
          "internalType": "string",
          "name": "symbol_",
          "type": "string"
        },
        {
          "internalType": "string",
          "name": "tokenURI_",
          "type": "string"
        }
      ],
      "stateMutability": "nonpayable",
      "type": "constructor"
    },
    {
      "inputs": [
        {
          "internalType": "uint256",
          "name": "requestId",
          "type": "uint256"
        }
      ],
      "name": "ERC7984InvalidGatewayRequest",
      "type": "error"
    },
    {
      "inputs": [
        {
          "internalType": "address",
          "name": "receiver",
          "type": "address"
        }
      ],
      "name": "ERC7984InvalidReceiver",
      "type": "error"
    },
    {
      "inputs": [
        {
          "internalType": "address",
          "name": "sender",
          "type": "address"
        }
      ],
      "name": "ERC7984InvalidSender",
      "type": "error"
    },
    {
      "inputs": [
        {
          "internalType": "address",
          "name": "caller",
          "type": "address"
        }
      ],
      "name": "ERC7984UnauthorizedCaller",
      "type": "error"
    },
    {
      "inputs": [
        {
          "internalType": "address",
          "name": "holder",
          "type": "address"
        },
        {
          "internalType": "address",
          "name": "spender",
          "type": "address"
        }
      ],
      "name": "ERC7984UnauthorizedSpender",
      "type": "error"
    },
    {
      "inputs": [
        {
          "internalType": "euint64",
          "name": "amount",
          "type": "bytes32"
        },
        {
          "internalType": "address",
          "name": "user",
          "type": "address"
        }
      ],
      "name": "ERC7984UnauthorizedUseOfEncryptedAmount",
      "type": "error"
    },
    {
      "inputs": [
        {
          "internalType": "address",
          "name": "holder",
          "type": "address"
        }
      ],
      "name": "ERC7984ZeroBalance",
      "type": "error"
    },
    {
      "inputs": [],
      "name": "InvalidKMSSignatures",
      "type": "error"
    },
    {
      "inputs": [
        {
          "internalType": "address",
          "name": "owner",
          "type": "address"
        }
      ],
      "name": "OwnableInvalidOwner",
      "type": "error"
    },
    {
      "inputs": [
        {
          "internalType": "address",
          "name": "account",
          "type": "address"
        }
      ],
      "name": "OwnableUnauthorizedAccount",
      "type": "error"
    },
    {
      "inputs": [
        {
          "internalType": "bytes32",
          "name": "handle",
          "type": "bytes32"
        },
        {
          "internalType": "address",
          "name": "sender",
          "type": "address"
        }
      ],
      "name": "SenderNotAllowedToUseHandle",
      "type": "error"
    },
    {
      "inputs": [],
      "name": "ZamaProtocolUnsupported",
      "type": "error"
    },
    {
      "anonymous": false,
      "inputs": [
        {
          "indexed": true,
          "internalType": "euint64",
          "name": "encryptedAmount",
          "type": "bytes32"
        },
        {
          "indexed": true,
          "internalType": "address",
          "name": "requester",
          "type": "address"
        }
      ],
      "name": "AmountDiscloseRequested",
      "type": "event"
    },
    {
      "anonymous": false,
      "inputs": [
        {
          "indexed": true,
          "internalType": "euint64",
          "name": "encryptedAmount",
          "type": "bytes32"
        },
        {
          "indexed": false,
          "internalType": "uint64",
          "name": "amount",
          "type": "uint64"
        }
      ],
      "name": "AmountDisclosed",
      "type": "event"
    },
    {
      "anonymous": false,
      "inputs": [
        {
          "indexed": true,
          "internalType": "address",
          "name": "from",
          "type": "address"
        },
        {
          "indexed": true,
          "internalType": "address",
          "name": "to",
          "type": "address"
        },
        {
          "indexed": true,
          "internalType": "euint64",
          "name": "amount",
          "type": "bytes32"
        }
      ],
      "name": "ConfidentialTransfer",
      "type": "event"
    },
    {
      "anonymous": false,
      "inputs": [
        {
          "indexed": true,
          "internalType": "address",
          "name": "holder",
          "type": "address"
        },
        {
          "indexed": true,
          "internalType": "address",
          "name": "operator",
          "type": "address"
        },
        {
          "indexed": false,
          "internalType": "uint48",
          "name": "until",
          "type": "uint48"
        }
      ],
      "name": "OperatorSet",
      "type": "event"
    },
    {
      "anonymous": false,
      "inputs": [
        {
          "indexed": true,
          "internalType": "address",
          "name": "previousOwner",
          "type": "address"
        },
        {
          "indexed": true,
          "internalType": "address",
          "name": "newOwner",
          "type": "address"
        }
      ],
      "name": "OwnershipTransferStarted",
      "type": "event"
    },
    {
      "anonymous": false,
      "inputs": [
        {
          "indexed": true,
          "internalType": "address",
          "name": "previousOwner",
          "type": "address"
        },
        {
          "indexed": true,
          "internalType": "address",
          "name": "newOwner",
          "type": "address"
        }
      ],
      "name": "OwnershipTransferred",
      "type": "event"
    },
    {
      "anonymous": false,
      "inputs": [
        {
          "indexed": false,
          "internalType": "bytes32[]",
          "name": "handlesList",
          "type": "bytes32[]"
        },
        {
          "indexed": false,
          "internalType": "bytes",
          "name": "abiEncodedCleartexts",
          "type": "bytes"
        }
      ],
      "name": "PublicDecryptionVerified",
      "type": "event"
    },
    {
      "inputs": [],
      "name": "acceptOwnership",
      "outputs": [],
      "stateMutability": "nonpayable",
      "type": "function"
    },
    {
      "inputs": [
        {
          "internalType": "address",
          "name": "account",
          "type": "address"
        }
      ],
      "name": "confidentialBalanceOf",
      "outputs": [
        {
          "internalType": "euint64",
          "name": "",
          "type": "bytes32"
        }
      ],
      "stateMutability": "view",
      "type": "function"
    },
    {
      "inputs": [],
      "name": "confidentialProtocolId",
      "outputs": [
        {
          "internalType": "uint256",
          "name": "",
          "type": "uint256"
        }
      ],
      "stateMutability": "view",
      "type": "function"
    },
    {
      "inputs": [],
      "name": "confidentialTotalSupply",
      "outputs": [
        {
          "internalType": "euint64",
          "name": "",
          "type": "bytes32"
        }
      ],
      "stateMutability": "view",
      "type": "function"
    },
    {
      "inputs": [
        {
          "internalType": "address",
          "name": "to",
          "type": "address"
        },
        {
          "internalType": "externalEuint64",
          "name": "encryptedAmount",
          "type": "bytes32"
        },
        {
          "internalType": "bytes",
          "name": "inputProof",
          "type": "bytes"
        }
      ],
      "name": "confidentialTransfer",
      "outputs": [
        {
          "internalType": "euint64",
          "name": "",
          "type": "bytes32"
        }
      ],
      "stateMutability": "nonpayable",
      "type": "function"
    },
    {
      "inputs": [
        {
          "internalType": "address",
          "name": "to",
          "type": "address"
        },
        {
          "internalType": "euint64",
          "name": "amount",
          "type": "bytes32"
        }
      ],
      "name": "confidentialTransfer",
      "outputs": [
        {
          "internalType": "euint64",
          "name": "",
          "type": "bytes32"
        }
      ],
      "stateMutability": "nonpayable",
      "type": "function"
    },
    {
      "inputs": [
        {
          "internalType": "address",
          "name": "to",
          "type": "address"
        },
        {
          "internalType": "euint64",
          "name": "amount",
          "type": "bytes32"
        },
        {
          "internalType": "bytes",
          "name": "data",
          "type": "bytes"
        }
      ],
      "name": "confidentialTransferAndCall",
      "outputs": [
        {
          "internalType": "euint64",
          "name": "transferred",
          "type": "bytes32"
        }
      ],
      "stateMutability": "nonpayable",
      "type": "function"
    },
    {
      "inputs": [
        {
          "internalType": "address",
          "name": "to",
          "type": "address"
        },
        {
          "internalType": "externalEuint64",
          "name": "encryptedAmount",
          "type": "bytes32"
        },
        {
          "internalType": "bytes",
          "name": "inputProof",
          "type": "bytes"
        },
        {
          "internalType": "bytes",
          "name": "data",
          "type": "bytes"
        }
      ],
      "name": "confidentialTransferAndCall",
      "outputs": [
        {
          "internalType": "euint64",
          "name": "transferred",
          "type": "bytes32"
        }
      ],
      "stateMutability": "nonpayable",
      "type": "function"
    },
    {
      "inputs": [
        {
          "internalType": "address",
          "name": "from",
          "type": "address"
        },
        {
          "internalType": "address",
          "name": "to",
          "type": "address"
        },
        {
          "internalType": "externalEuint64",
          "name": "encryptedAmount",
          "type": "bytes32"
        },
        {
          "internalType": "bytes",
          "name": "inputProof",
          "type": "bytes"
        }
      ],
      "name": "confidentialTransferFrom",
      "outputs": [
        {
          "internalType": "euint64",
          "name": "transferred",
          "type": "bytes32"
        }
      ],
      "stateMutability": "nonpayable",
      "type": "function"
    },
    {
      "inputs": [
        {
          "internalType": "address",
          "name": "from",
          "type": "address"
        },
        {
          "internalType": "address",
          "name": "to",
          "type": "address"
        },
        {
          "internalType": "euint64",
          "name": "amount",
          "type": "bytes32"
        }
      ],
      "name": "confidentialTransferFrom",
      "outputs": [
        {
          "internalType": "euint64",
          "name": "transferred",
          "type": "bytes32"
        }
      ],
      "stateMutability": "nonpayable",
      "type": "function"
    },
    {
      "inputs": [
        {
          "internalType": "address",
          "name": "from",
          "type": "address"
        },
        {
          "internalType": "address",
          "name": "to",
          "type": "address"
        },
        {
          "internalType": "externalEuint64",
          "name": "encryptedAmount",
          "type": "bytes32"
        },
        {
          "internalType": "bytes",
          "name": "inputProof",
          "type": "bytes"
        },
        {
          "internalType": "bytes",
          "name": "data",
          "type": "bytes"
        }
      ],
      "name": "confidentialTransferFromAndCall",
      "outputs": [
        {
          "internalType": "euint64",
          "name": "transferred",
          "type": "bytes32"
        }
      ],
      "stateMutability": "nonpayable",
      "type": "function"
    },
    {
      "inputs": [
        {
          "internalType": "address",
          "name": "from",
          "type": "address"
        },
        {
          "internalType": "address",
          "name": "to",
          "type": "address"
        },
        {
          "internalType": "euint64",
          "name": "amount",
          "type": "bytes32"
        },
        {
          "internalType": "bytes",
          "name": "data",
          "type": "bytes"
        }
      ],
      "name": "confidentialTransferFromAndCall",
      "outputs": [
        {
          "internalType": "euint64",
          "name": "transferred",
          "type": "bytes32"
        }
      ],
      "stateMutability": "nonpayable",
      "type": "function"
    },
    {
      "inputs": [],
      "name": "contractURI",
      "outputs": [
        {
          "internalType": "string",
          "name": "",
          "type": "string"
        }
      ],
      "stateMutability": "view",
      "type": "function"
    },
    {
      "inputs": [],
      "name": "decimals",
      "outputs": [
        {
          "internalType": "uint8",
          "name": "",
          "type": "uint8"
        }
      ],
      "stateMutability": "pure",
      "type": "function"
    },
    {
      "inputs": [
        {
          "internalType": "euint64",
          "name": "encryptedAmount",
          "type": "bytes32"
        },
        {
          "internalType": "uint64",
          "name": "cleartextAmount",
          "type": "uint64"
        },
        {
          "internalType": "bytes",
          "name": "decryptionProof",
          "type": "bytes"
        }
      ],
      "name": "discloseEncryptedAmount",
      "outputs": [],
      "stateMutability": "nonpayable",
      "type": "function"
    },
    {
      "inputs": [
        {
          "internalType": "address",
          "name": "holder",
          "type": "address"
        },
        {
          "internalType": "address",
          "name": "spender",
          "type": "address"
        }
      ],
      "name": "isOperator",
      "outputs": [
        {
          "internalType": "bool",
          "name": "",
          "type": "bool"
        }
      ],
      "stateMutability": "view",
      "type": "function"
    },
    {
      "inputs": [
        {
          "internalType": "address",
          "name": "to",
          "type": "address"
        },
        {
          "internalType": "uint64",
          "name": "amount",
          "type": "uint64"
        }
      ],
      "name": "mint",
      "outputs": [],
      "stateMutability": "nonpayable",
      "type": "function"
    },
    {
      "inputs": [],
      "name": "name",
      "outputs": [
        {
          "internalType": "string",
          "name": "",
          "type": "string"
        }
      ],
      "stateMutability": "view",
      "type": "function"
    },
    {
      "inputs": [],
      "name": "owner",
      "outputs": [
        {
          "internalType": "address",
          "name": "",
          "type": "address"
        }
      ],
      "stateMutability": "view",
      "type": "function"
    },
    {
      "inputs": [],
      "name": "pendingOwner",
      "outputs": [
        {
          "internalType": "address",
          "name": "",
          "type": "address"
        }
      ],
      "stateMutability": "view",
      "type": "function"
    },
    {
      "inputs": [],
      "name": "renounceOwnership",
      "outputs": [],
      "stateMutability": "nonpayable",
      "type": "function"
    },
    {
      "inputs": [
        {
          "internalType": "euint64",
          "name": "encryptedAmount",
          "type": "bytes32"
        }
      ],
      "name": "requestDiscloseEncryptedAmount",
      "outputs": [],
      "stateMutability": "nonpayable",
      "type": "function"
    },
    {
      "inputs": [
        {
          "internalType": "address",
          "name": "operator",
          "type": "address"
        },
        {
          "internalType": "uint48",
          "name": "until",
          "type": "uint48"
        }
      ],
      "name": "setOperator",
      "outputs": [],
      "stateMutability": "nonpayable",
      "type": "function"
    },
    {
      "inputs": [
        {
          "internalType": "bytes4",
          "name": "interfaceId",
          "type": "bytes4"
        }
      ],
      "name": "supportsInterface",
      "outputs": [
        {
          "internalType": "bool",
          "name": "",
          "type": "bool"
        }
      ],
      "stateMutability": "view",
      "type": "function"
    },
    {
      "inputs": [],
      "name": "symbol",
      "outputs": [
        {
          "internalType": "string",
          "name": "",
          "type": "string"
        }
      ],
      "stateMutability": "view",
      "type": "function"
    },
    {
      "inputs": [
        {
          "internalType": "address",
          "name": "newOwner",
          "type": "address"
        }
      ],
      "name": "transferOwnership",
      "outputs": [],
      "stateMutability": "nonpayable",
      "type": "function"
    }
  ],
  "transactionHash": "0x0c83c9f7463e5dad3e65696a84f1367dbde783c2f655f9f985d8b60560790b56",
  "args": [
    1000000,
    "USDBagel",
    "USDB",
    ""
  ],
  "numDeployments": 1,
  "solcInputHash": "27b11f1b0b0fb7737ddd3b75323189d8",
  "bytecode": "0x608060405234801561000f575f5ffd5b50604051612fab380380612fab83398101604081905261002e91610c34565b3383838361004261003d6100c1565b610270565b600361004e8482610d66565b50600461005b8382610d66565b5060056100688282610d66565b5050506001600160a01b038216905061009b57604051631e4fbdf760e01b81525f60048201526024015b60405180910390fd5b6100a4816102f6565b506100b7336100b28661030f565b61032a565b5050505050610e67565b604080516060810182525f80825260208201819052918101919091524660010361015a575060408051606080820183525f8083526020808401829052928401528251908101835273ca2e8f1f656cd25c01f05d0b243ab1ecd4a8ffb6815273d82385dada1ae3e969447f20a3164f6213100e75918101919091527377627828a55156b04ac0dc0eb30467f1a552bb039181019190915290565b4662aa36a7036101d9575060408051606080820183525f8083526020808401829052928401528251908101835273f0ffdc93b7e186bc2f8cb3daa75d86d1930a433d81527392c920834ec8941d2c77d188936e1f7a6f49c1279181019190915273be0e383937d564d7ff0bc3b46c51f0bf8d5c311a9181019190915290565b46617a6903610257575060408051606080820183525f808352602080840182905292840152825190810183527350157cffd6bbfa2dece204a89ec419c23ef5755d815273e3a9105a3a932253a70f126eb1e3b589c643dd249181019190915273901f8942346f7ab3a01f6d7613119bca447bb0309181019190915290565b6040516373cac13b60e01b815260040160405180910390fd5b80515f516020612f8b5f395f51905f5280546001600160a01b03199081166001600160a01b039384161790915560208301515f516020612f6b5f395f51905f528054831691841691909117905560408301517f9e7b61f58c47dc699ac88507c4f5bb9f121c03808c5676a8078fe583e46497028054909216921691909117905550565b50565b600780546001600160a01b03191690556102f381610372565b5f6103246001600160401b03831660056103c3565b92915050565b5f806001600160a01b03841661035f57604051638d51880160e01b81526001600160a01b039091166004820152602401610092565b5061036b5f848461045a565b9392505050565b600680546001600160a01b038381166001600160a01b0319831681179093556040519116919082907f8be0079c531659141344cd1fd0a4f28419497f9722a3daafe3b4186f6b6457e0905f90a35050565b5f516020612f6b5f395f51905f5254604051639cd07acb60e01b81525f915f516020612f8b5f395f51905f52916001600160a01b0390911690639cd07acb906104129087908790600401610e20565b6020604051808303815f875af115801561042e573d5f5f3e3d5ffd5b505050506040513d601f19601f820116820180604052508101906104529190610e50565b949350505050565b5f61046684848461048d565b905061048561047460025490565b6006546001600160a01b031661066c565b509392505050565b5f80806001600160a01b0386166104c4576002546104ab908561068f565b90925090506104b9816106d9565b506002819055610548565b6001600160a01b0386165f908152602081905260409020548681610507576040516317fe473760e21b81526001600160a01b039091166004820152602401610092565b5061051281866106f9565b9093509150610520826106d9565b5061052b828861066c565b50506001600160a01b0386165f9081526020819052604090208190555b61055b82856105565f61030f565b61075e565b92506001600160a01b03851661058e57600254610578908461079d565b9050610583816106d9565b5060028190556105e2565b6001600160a01b0385165f908152602081905260409020546105b090846107cb565b90506105bb816106d9565b506105c6818661066c565b506001600160a01b0385165f9081526020819052604090208190555b6001600160a01b038616156105fd576105fb838761066c565b505b6001600160a01b0385161561061857610616838661066c565b505b610621836106d9565b5082856001600160a01b0316876001600160a01b03167f67500e8d0ed826d2194f514dd0d8124f35648ab6e3fb5e6ed867134cffe661e960405160405180910390a450509392505050565b5f8261067e5761067b5f61030f565b92505b61068883836107f9565b5090919050565b5f80836106aa576106a0600161086f565b83915091506106d2565b5f6106b585856107cb565b90506106c1818661088a565b92506106ce83828761075e565b9150505b9250929050565b5f816106eb576106e85f61030f565b91505b6106f582306107f9565b5090565b5f808361073557826107195761070f600161086f565b84915091506106d2565b610723835f6108b8565b61072c5f61030f565b915091506106d2565b61073f848461088a565b91506107558261074f868661079d565b8661075e565b90509250929050565b5f836107705761076d5f61086f565b93505b826107815761077e5f61030f565b92505b816107925761078f5f61030f565b91505b6104528484846108df565b5f826107af576107ac5f61030f565b92505b816107c0576107bd5f61030f565b91505b61036b83835f610975565b5f826107dd576107da5f61030f565b92505b816107ee576107eb5f61030f565b91505b61036b83835f610a32565b5f5f516020612f8b5f395f51905f528054604051635ca4b5b160e11b8152600481018690526001600160a01b03858116602483015292935091169063b9496b62906044015f604051808303815f87803b158015610854575f5ffd5b505af1158015610866573d5f5f3e3d5ffd5b50505050505050565b5f6103248261087e575f610881565b60015b60ff165f6103c3565b5f8261089c576108995f61030f565b92505b816108ad576108aa5f61030f565b91505b61036b83835f610aa9565b5f826108ca576108c75f61030f565b92505b61036b836001600160401b0384166001610b20565b5f805f516020612f8b5f395f51905f526001810154604051637702dcff60e01b81526004810188905260248101879052604481018690529192506001600160a01b031690637702dcff906064016020604051808303815f875af1158015610948573d5f5f3e3d5ffd5b505050506040513d601f19601f8201168201806040525081019061096c9190610e50565b95945050505050565b5f5f82156109885750600160f81b61098b565b505f5b5f516020612f6b5f395f51905f52546040516303056db360e31b815260048101879052602481018690526001600160f81b0319831660448201525f516020612f8b5f395f51905f52916001600160a01b03169063182b6d98906064015b6020604051808303815f875af1158015610a04573d5f5f3e3d5ffd5b505050506040513d601f19601f82011682018060405250810190610a289190610e50565b9695505050505050565b5f5f8215610a455750600160f81b610a48565b505f5b5f516020612f6b5f395f51905f525460405163022f65e760e31b815260048101879052602481018690526001600160f81b0319831660448201525f516020612f8b5f395f51905f52916001600160a01b03169063117b2f38906064016109e8565b5f5f8215610abc5750600160f81b610abf565b505f5b5f516020612f6b5f395f51905f5254604051631391547f60e01b815260048101879052602481018690526001600160f81b0319831660448201525f516020612f8b5f395f51905f52916001600160a01b031690631391547f906064016109e8565b5f5f8215610b335750600160f81b610b36565b505f5b5f516020612f6b5f395f51905f525460405163f77f3f1d60e01b815260048101879052602481018690526001600160f81b0319831660448201525f516020612f8b5f395f51905f52916001600160a01b03169063f77f3f1d906064016109e8565b634e487b7160e01b5f52604160045260245ffd5b5f82601f830112610bba575f5ffd5b81516001600160401b03811115610bd357610bd3610b97565b604051601f8201601f19908116603f011681016001600160401b0381118282101715610c0157610c01610b97565b604052818152838201602001851015610c18575f5ffd5b8160208501602083015e5f918101602001919091529392505050565b5f5f5f5f60808587031215610c47575f5ffd5b84516001600160401b0381168114610c5d575f5ffd5b60208601519094506001600160401b03811115610c78575f5ffd5b610c8487828801610bab565b604087015190945090506001600160401b03811115610ca1575f5ffd5b610cad87828801610bab565b606087015190935090506001600160401b03811115610cca575f5ffd5b610cd687828801610bab565b91505092959194509250565b600181811c90821680610cf657607f821691505b602082108103610d1457634e487b7160e01b5f52602260045260245ffd5b50919050565b601f821115610d6157805f5260205f20601f840160051c81016020851015610d3f5750805b601f840160051c820191505b81811015610d5e575f8155600101610d4b565b50505b505050565b81516001600160401b03811115610d7f57610d7f610b97565b610d9381610d8d8454610ce2565b84610d1a565b6020601f821160018114610dc5575f8315610dae5750848201515b5f19600385901b1c1916600184901b178455610d5e565b5f84815260208120601f198516915b82811015610df45787850151825560209485019460019092019101610dd4565b5084821015610e1157868401515f19600387901b60f8161c191681555b50505050600190811b01905550565b8281526040810160548310610e4357634e487b7160e01b5f52602160045260245ffd5b8260208301529392505050565b5f60208284031215610e60575f5ffd5b5051919050565b6120f780610e745f395ff3fe608060405234801561000f575f5ffd5b50600436106101a5575f3560e01c80638da5cb5b116100e8578063d806180611610093578063e30c39781161006e578063e30c39781461035e578063e8a3d4851461036f578063eb3155b514610377578063f2fde38b1461038a575f5ffd5b8063d806180614610325578063de64211914610338578063e064b9bb1461034b575f5ffd5b8063b6363cf2116100c3578063b6363cf2146102ec578063c7b8a75e146102ff578063d4febb9614610312575f5ffd5b80638da5cb5b146102ac57806395d89b41146102d1578063b1af281e146102d9575f5ffd5b806334c45743116101535780635bebed7e1161012e5780635bebed7e14610281578063715018a61461029457806379ba50971461029c5780638927b030146102a4575f5ffd5b806334c4574314610253578063537d3c50146102665780635409522714610279575f5ffd5b80632fb74e62116101835780632fb74e62146101fb578063313ce5671461021c578063344ff1011461022b575f5ffd5b806301ffc9a7146101a957806306fdde03146101d15780632893c5b0146101e6575b5f5ffd5b6101bc6101b7366004611ac9565b61039d565b60405190151581526020015b60405180910390f35b6101d96103d3565b6040516101c89190611b1e565b6101f96101f4366004611b62565b610463565b005b61020e610209366004611bc8565b610482565b6040519081526020016101c8565b604051600681526020016101c8565b61020e610239366004611c1e565b6001600160a01b03165f9081526020819052604090205490565b61020e610261366004611c37565b6104d5565b61020e610274366004611bc8565b61057e565b60025461020e565b61020e61028f366004611cd0565b6105e0565b6101f9610632565b6101f9610645565b61020e610689565b6006546001600160a01b03165b6040516001600160a01b0390911681526020016101c8565b6101d9610697565b6101f96102e7366004611cf8565b6106a6565b6101bc6102fa366004611d36565b61079b565b61020e61030d366004611d5e565b6107ed565b6101f9610320366004611dc8565b610890565b6101f9610333366004611e07565b61089f565b61020e610346366004611e1e565b610917565b61020e610359366004611d5e565b610973565b6007546001600160a01b03166102b9565b6101d96109f8565b61020e610385366004611ea7565b610a07565b6101f9610398366004611c1e565b610aa6565b5f6001600160e01b031982166312563ca960e21b14806103cd57506301ffc9a760e01b6001600160e01b03198316145b92915050565b6060600380546103e290611ee1565b80601f016020809104026020016040519081016040528092919081815260200182805461040e90611ee1565b80156104595780601f1061043057610100808354040283529160200191610459565b820191905f5260205f20905b81548152906001019060200180831161043c57829003601f168201915b5050505050905090565b61046b610b24565b61047d8261047883610b51565b610b67565b505050565b5f6104cc33866104c78787878080601f0160208091040260200160405190810160405280939291908181526020018383808284375f92019190915250610ba892505050565b610c0e565b95945050505050565b5f6104e0883361079b565b8833909161051957604051630f3e596760e31b81526001600160a01b039283166004820152911660248201526044015b60405180910390fd5b5050610566888861055f8989898080601f0160208091040260200160405190810160405280939291908181526020018383808284375f92019190915250610ba892505050565b8686610c8c565b90506105728133610ce3565b50979650505050505050565b5f6105898433610d06565b843390916105bc576040516367cfe80560e01b815260048101929092526001600160a01b03166024820152604401610510565b50506105cb3386868686610c8c565b90506105d78133610ce3565b50949350505050565b5f6105eb8233610d06565b8233909161061e576040516367cfe80560e01b815260048101929092526001600160a01b03166024820152604401610510565b505061062b338484610c0e565b9392505050565b61063a610b24565b6106435f610d11565b565b60075433906001600160a01b0316811461067d5760405163118cdaa760e01b81526001600160a01b0382166004820152602401610510565b61068681610d11565b50565b5f610692610d37565b905090565b6060600480546103e290611ee1565b6040805160018082528183019092525f916020808301908036833701905050905084815f815181106106da576106da611f19565b6020026020010181815250505f84604051602001610708919067ffffffffffffffff91909116815260200190565b60408051601f198184030181526020601f8701819004810284018101909252858352925061075491849184919088908890819084018382808284375f92019190915250610d6b92505050565b60405167ffffffffffffffff8616815286907f83bbbc07896439e5d950a6cead04cbc676180af7a61cecf43f5296475057f5719060200160405180910390a2505050505050565b5f816001600160a01b0316836001600160a01b0316148061062b5750506001600160a01b039182165f90815260016020908152604080832093909416825291909152205465ffffffffffff1642111590565b5f6107f88433610d06565b8433909161082b576040516367cfe80560e01b815260048101929092526001600160a01b03166024820152604401610510565b5050610837863361079b565b8633909161086b57604051630f3e596760e31b81526001600160a01b03928316600482015291166024820152604401610510565b505061087a8686868686610c8c565b90506108868133610ce3565b5095945050505050565b61089b338383610dd6565b5050565b6108a98133610d06565b813390916108dc576040516367cfe80560e01b815260048101929092526001600160a01b03166024820152604401610510565b50506108e781610e4d565b50604051339082907f189c3bfae2e5ce7726b29d57bb6ed0f1a7ebcd153a863ff5ecb6cd998064c98c905f90a350565b5f61095c338861055f8989898080601f0160208091040260200160405190810160405280939291908181526020018383808284375f92019190915250610ba892505050565b90506109688133610ce3565b509695505050505050565b5f61097e863361079b565b863390916109b257604051630f3e596760e31b81526001600160a01b03928316600482015291166024820152604401610510565b505061087a86866104c78787878080601f0160208091040260200160405190810160405280939291908181526020018383808284375f92019190915250610ba892505050565b6060600580546103e290611ee1565b5f610a128233610d06565b82339091610a45576040516367cfe80560e01b815260048101929092526001600160a01b03166024820152604401610510565b5050610a51843361079b565b84339091610a8557604051630f3e596760e31b81526001600160a01b03928316600482015291166024820152604401610510565b5050610a92848484610c0e565b9050610a9e8133610ce3565b509392505050565b610aae610b24565b600780546001600160a01b03831673ffffffffffffffffffffffffffffffffffffffff199091168117909155610aec6006546001600160a01b031690565b6001600160a01b03167f38d16b8cac22d99fc7c124b9cd0de2d3fa1faef420bfe791d8c362d765e2270060405160405180910390a350565b6006546001600160a01b031633146106435760405163118cdaa760e01b8152336004820152602401610510565b5f6103cd8267ffffffffffffffff166005610e6c565b5f806001600160a01b038416610b9c57604051638d51880160e01b81526001600160a01b039091166004820152602401610510565b5061062b5f8484610f0e565b5f81515f14610bc457610bbd83836005610f39565b90506103cd565b825f819003610bde57610bd65f610b51565b9150506103cd565b610be88133611046565b610bbd57604051630276b5d960e01b815260048101829052336024820152604401610510565b5f806001600160a01b038516610c435760405163ee457ebf60e01b81526001600160a01b039091166004820152602401610510565b505f6001600160a01b038416610c7857604051638d51880160e01b81526001600160a01b039091166004820152602401610510565b50610c84848484610f0e565b949350505050565b5f5f610c99878787610c0e565b90505f610caa3389898589896110ca565b90505f610cca888a610cc585610cbf5f610b51565b886111ce565b610f0e565b9050610cd6838261120d565b9998505050505050505050565b5f82610cf557610cf25f610b51565b92505b610cff838361123b565b5090919050565b5f61062b8383611046565b6007805473ffffffffffffffffffffffffffffffffffffffff19169055610686816112af565b5f46600103610d465750600190565b4662aa36a703610d57575061271190565b46617a6903610d6657505f1990565b505f90565b5f610d7784848461130d565b905080610d975760405163cf6c44e960e01b815260040160405180910390fd5b7fc6366bab028b8d033cb362cfd1f2f3457ef4e92fc738b6788b90d5a7846367a08484604051610dc8929190611f67565b60405180910390a150505050565b6001600160a01b038381165f81815260016020908152604080832094871680845294825291829020805465ffffffffffff191665ffffffffffff871690811790915591519182527f921a218a75d18e8ec5704851e6b234a85725b21a2521ce889622c35dedc1fa12910160405180910390a3505050565b5f81610e5f57610e5c5f610b51565b91505b610e68826113b1565b5090565b7f9e7b61f58c47dc699ac88507c4f5bb9f121c03808c5676a8078fe583e464970154604051639cd07acb60e01b81525f915f5160206120cb5f395f51905f52916001600160a01b0390911690639cd07acb90610ece9087908790600401611fab565b6020604051808303815f875af1158015610eea573d5f5f3e3d5ffd5b505050506040513d601f19601f82011682018060405250810190610c849190611fbf565b5f610f1a84848461142f565b9050610a9e610f2860025490565b6006546001600160a01b031661160c565b7f9e7b61f58c47dc699ac88507c4f5bb9f121c03808c5676a8078fe583e46497015460405163045fc19560e11b81525f915f5160206120cb5f395f51905f52916001600160a01b03909116906308bf832a90610f9f908890339089908990600401611fd6565b6020604051808303815f875af1158015610fbb573d5f5f3e3d5ffd5b505050506040513d601f19601f82011682018060405250810190610fdf9190611fbf565b8154604051630f8e573b60e21b8152600481018390523360248201529193506001600160a01b031690633e395cec906044015f604051808303815f87803b158015611028575f5ffd5b505af115801561103a573d5f5f3e3d5ffd5b50505050509392505050565b5f805f5160206120cb5f395f51905f5280546040516382027b6d60e01b8152600481018790526001600160a01b0386811660248301529293509116906382027b6d90604401602060405180830381865afa1580156110a6573d5f5f3e3d5ffd5b505050506040513d601f19601f82011682018060405250810190610c84919061200c565b5f6001600160a01b0385163b156111b7576040516346083bfd60e01b81526001600160a01b038616906346083bfd9061110f908a908a9089908990899060040161202b565b6020604051808303815f875af1925050508015611149575060408051601f3d908101601f1916820190925261114691810190611fbf565b60015b6111b0573d808015611176576040519150601f19603f3d011682016040523d82523d5f602084013e61117b565b606091505b5080515f036111a857604051638d51880160e01b81526001600160a01b0387166004820152602401610510565b805181602001fd5b90506111c4565b6111c16001611628565b90505b9695505050505050565b5f836111e0576111dd5f611628565b93505b826111f1576111ee5f610b51565b92505b81611202576111ff5f610b51565b91505b610c84848484611643565b5f8261121f5761121c5f610b51565b92505b816112305761122d5f610b51565b91505b61062b83835f6116d0565b5f5160206120cb5f395f51905f528054604051630f8e573b60e21b8152600481018590526001600160a01b03848116602483015290911690633e395cec906044015b5f604051808303815f87803b158015611294575f5ffd5b505af11580156112a6573d5f5f3e3d5ffd5b50505050505050565b600680546001600160a01b0383811673ffffffffffffffffffffffffffffffffffffffff19831681179093556040519116919082907f8be0079c531659141344cd1fd0a4f28419497f9722a3daafe3b4186f6b6457e0905f90a35050565b7f9e7b61f58c47dc699ac88507c4f5bb9f121c03808c5676a8078fe583e4649702546040516378542ead60e01b81525f915f5160206120cb5f395f51905f52916001600160a01b03909116906378542ead9061137190889088908890600401612080565b6020604051808303815f875af115801561138d573d5f5f3e3d5ffd5b505050506040513d601f19601f820116820180604052508101906104cc919061200c565b6040805160018082528183019092525f5160206120cb5f395f51905f52915f91906020808301908036833701905050905082815f815181106113f5576113f5611f19565b60209081029190910101528154604051637d6e912360e11b81526001600160a01b039091169063fadd22469061127d9084906004016120b8565b5f80806001600160a01b0386166114655761144c60025485611796565b909250905061145a816117e0565b5060028190556114e9565b6001600160a01b0386165f9081526020819052604090205486816114a8576040516317fe473760e21b81526001600160a01b039091166004820152602401610510565b506114b381866117fc565b90935091506114c1826117e0565b506114cc828861160c565b50506001600160a01b0386165f9081526020819052604090208190555b6114fc82856114f75f610b51565b6111ce565b92506001600160a01b03851661152e576115186002548461120d565b9050611523816117e0565b506002819055611582565b6001600160a01b0385165f908152602081905260409020546115509084611861565b905061155b816117e0565b50611566818661160c565b506001600160a01b0385165f9081526020819052604090208190555b6001600160a01b0386161561159d5761159b838761160c565b505b6001600160a01b038516156115b8576115b6838661160c565b505b6115c1836117e0565b5082856001600160a01b0316876001600160a01b03167f67500e8d0ed826d2194f514dd0d8124f35648ab6e3fb5e6ed867134cffe661e960405160405180910390a450509392505050565b5f8261161e5761161b5f610b51565b92505b610cff838361188f565b5f6103cd82611637575f61163a565b60015b60ff165f610e6c565b5f805f5160206120cb5f395f51905f526001810154604051637702dcff60e01b81526004810188905260248101879052604481018690529192506001600160a01b031690637702dcff906064016020604051808303815f875af11580156116ac573d5f5f3e3d5ffd5b505050506040513d601f19601f820116820180604052508101906104cc9190611fbf565b5f5f82156116e35750600160f81b6116e6565b505f5b7f9e7b61f58c47dc699ac88507c4f5bb9f121c03808c5676a8078fe583e4649701546040516303056db360e31b815260048101879052602481018690526001600160f81b0319831660448201525f5160206120cb5f395f51905f52916001600160a01b03169063182b6d98906064015b6020604051808303815f875af1158015611772573d5f5f3e3d5ffd5b505050506040513d601f19601f820116820180604052508101906111c49190611fbf565b5f80836117b1576117a76001611628565b83915091506117d9565b5f6117bc8585611861565b90506117c881866118d5565b92506117d58382876111ce565b9150505b9250929050565b5f816117f2576117ef5f610b51565b91505b610e68823061188f565b5f8083611838578261181c576118126001611628565b84915091506117d9565b611826835f611903565b61182f5f610b51565b915091506117d9565b61184284846118d5565b915061185882611852868661120d565b866111ce565b90509250929050565b5f82611873576118705f610b51565b92505b81611884576118815f610b51565b91505b61062b83835f61192b565b5f5160206120cb5f395f51905f528054604051635ca4b5b160e11b8152600481018590526001600160a01b0384811660248301529091169063b9496b629060440161127d565b5f826118e7576118e45f610b51565b92505b816118f8576118f55f610b51565b91505b61062b83835f6119b5565b5f82611915576119125f610b51565b92505b61062b8367ffffffffffffffff84166001611a3f565b5f5f821561193e5750600160f81b611941565b505f5b7f9e7b61f58c47dc699ac88507c4f5bb9f121c03808c5676a8078fe583e46497015460405163022f65e760e31b815260048101879052602481018690526001600160f81b0319831660448201525f5160206120cb5f395f51905f52916001600160a01b03169063117b2f3890606401611756565b5f5f82156119c85750600160f81b6119cb565b505f5b7f9e7b61f58c47dc699ac88507c4f5bb9f121c03808c5676a8078fe583e464970154604051631391547f60e01b815260048101879052602481018690526001600160f81b0319831660448201525f5160206120cb5f395f51905f52916001600160a01b031690631391547f90606401611756565b5f5f8215611a525750600160f81b611a55565b505f5b7f9e7b61f58c47dc699ac88507c4f5bb9f121c03808c5676a8078fe583e46497015460405163f77f3f1d60e01b815260048101879052602481018690526001600160f81b0319831660448201525f5160206120cb5f395f51905f52916001600160a01b03169063f77f3f1d90606401611756565b5f60208284031215611ad9575f5ffd5b81356001600160e01b03198116811461062b575f5ffd5b5f81518084528060208401602086015e5f602082860101526020601f19601f83011685010191505092915050565b602081525f61062b6020830184611af0565b80356001600160a01b0381168114611b46575f5ffd5b919050565b803567ffffffffffffffff81168114611b46575f5ffd5b5f5f60408385031215611b73575f5ffd5b611b7c83611b30565b915061185860208401611b4b565b5f5f83601f840112611b9a575f5ffd5b50813567ffffffffffffffff811115611bb1575f5ffd5b6020830191508360208285010111156117d9575f5ffd5b5f5f5f5f60608587031215611bdb575f5ffd5b611be485611b30565b935060208501359250604085013567ffffffffffffffff811115611c06575f5ffd5b611c1287828801611b8a565b95989497509550505050565b5f60208284031215611c2e575f5ffd5b61062b82611b30565b5f5f5f5f5f5f5f60a0888a031215611c4d575f5ffd5b611c5688611b30565b9650611c6460208901611b30565b955060408801359450606088013567ffffffffffffffff811115611c86575f5ffd5b611c928a828b01611b8a565b909550935050608088013567ffffffffffffffff811115611cb1575f5ffd5b611cbd8a828b01611b8a565b989b979a50959850939692959293505050565b5f5f60408385031215611ce1575f5ffd5b611cea83611b30565b946020939093013593505050565b5f5f5f5f60608587031215611d0b575f5ffd5b84359350611d1b60208601611b4b565b9250604085013567ffffffffffffffff811115611c06575f5ffd5b5f5f60408385031215611d47575f5ffd5b611d5083611b30565b915061185860208401611b30565b5f5f5f5f5f60808688031215611d72575f5ffd5b611d7b86611b30565b9450611d8960208701611b30565b935060408601359250606086013567ffffffffffffffff811115611dab575f5ffd5b611db788828901611b8a565b969995985093965092949392505050565b5f5f60408385031215611dd9575f5ffd5b611de283611b30565b9150602083013565ffffffffffff81168114611dfc575f5ffd5b809150509250929050565b5f60208284031215611e17575f5ffd5b5035919050565b5f5f5f5f5f5f60808789031215611e33575f5ffd5b611e3c87611b30565b955060208701359450604087013567ffffffffffffffff811115611e5e575f5ffd5b611e6a89828a01611b8a565b909550935050606087013567ffffffffffffffff811115611e89575f5ffd5b611e9589828a01611b8a565b979a9699509497509295939492505050565b5f5f5f60608486031215611eb9575f5ffd5b611ec284611b30565b9250611ed060208501611b30565b929592945050506040919091013590565b600181811c90821680611ef557607f821691505b602082108103611f1357634e487b7160e01b5f52602260045260245ffd5b50919050565b634e487b7160e01b5f52603260045260245ffd5b5f8151808452602084019350602083015f5b82811015611f5d578151865260209586019590910190600101611f3f565b5093949350505050565b604081525f611f796040830185611f2d565b82810360208401526104cc8185611af0565b60548110611fa757634e487b7160e01b5f52602160045260245ffd5b9052565b8281526040810161062b6020830184611f8b565b5f60208284031215611fcf575f5ffd5b5051919050565b8481526001600160a01b0384166020820152608060408201525f611ffd6080830185611af0565b90506104cc6060830184611f8b565b5f6020828403121561201c575f5ffd5b8151801515811461062b575f5ffd5b6001600160a01b03861681526001600160a01b038516602082015283604082015260806060820152816080820152818360a08301375f81830160a090810191909152601f909201601f19160101949350505050565b606081525f6120926060830186611f2d565b82810360208401526120a48186611af0565b905082810360408401526111c48185611af0565b602081525f61062b6020830184611f2d56fe9e7b61f58c47dc699ac88507c4f5bb9f121c03808c5676a8078fe583e4649700a164736f6c634300081b000a9e7b61f58c47dc699ac88507c4f5bb9f121c03808c5676a8078fe583e46497019e7b61f58c47dc699ac88507c4f5bb9f121c03808c5676a8078fe583e4649700",
  "devdoc": {
    "details": "All balances are encrypted using Zama fhEVM. 6 decimals.",
    "errors": {
      "ERC7984InvalidGatewayRequest(uint256)": [
        {
          "details": "The given gateway request ID `requestId` is invalid."
        }
      ],
      "ERC7984InvalidReceiver(address)": [
        {
          "details": "The given receiver `receiver` is invalid for transfers."
        }
      ],
      "ERC7984InvalidSender(address)": [
        {
          "details": "The given sender `sender` is invalid for transfers."
        }
      ],
      "ERC7984UnauthorizedCaller(address)": [
        {
          "details": "The given caller `caller` is not authorized for the current operation."
        }
      ],
      "ERC7984UnauthorizedSpender(address,address)": [
        {
          "details": "The given holder `holder` is not authorized to spend on behalf of `spender`."
        }
      ],
      "ERC7984UnauthorizedUseOfEncryptedAmount(bytes32,address)": [
        {
          "details": "The caller `user` does not have access to the encrypted amount `amount`. NOTE: Try using the equivalent transfer function with an input proof."
        }
      ],
      "ERC7984ZeroBalance(address)": [
        {
          "details": "The holder `holder` is trying to send tokens but has a balance of 0."
        }
      ],
      "OwnableInvalidOwner(address)": [
        {
          "details": "The owner is not a valid owner account. (eg. `address(0)`)"
        }
      ],
      "OwnableUnauthorizedAccount(address)": [
        {
          "details": "The caller account is not authorized to perform an operation."
        }
      ]
    },
    "events": {
      "AmountDiscloseRequested(bytes32,address)": {
        "details": "Emitted when an encrypted amount `encryptedAmount` is requested for disclosure by `requester`."
      },
      "AmountDisclosed(bytes32,uint64)": {
        "details": "Emitted when an encrypted amount is disclosed. Accounts with access to the encrypted amount `encryptedAmount` that is also accessible to this contract should be able to disclose the amount. This functionality is implementation specific."
      },
      "ConfidentialTransfer(address,address,bytes32)": {
        "details": "Emitted when a confidential transfer is made from `from` to `to` of encrypted amount `amount`."
      },
      "OperatorSet(address,address,uint48)": {
        "details": "Emitted when the expiration timestamp for an operator `operator` is updated for a given `holder`. The operator may move any amount of tokens on behalf of the holder until the timestamp `until`."
      }
    },
    "kind": "dev",
    "methods": {
      "acceptOwnership()": {
        "details": "The new owner accepts the ownership transfer."
      },
      "confidentialBalanceOf(address)": {
        "details": "Returns the confidential balance of the account `account`."
      },
      "confidentialTotalSupply()": {
        "details": "Returns the confidential total supply of the token."
      },
      "confidentialTransfer(address,bytes32)": {
        "details": "Similar to {confidentialTransfer-address-externalEuint64-bytes} but without an input proof. The caller *must* already be allowed by ACL for the given `amount`."
      },
      "confidentialTransfer(address,bytes32,bytes)": {
        "details": "Transfers the encrypted amount `encryptedAmount` to `to` with the given input proof `inputProof`. Returns the encrypted amount that was actually transferred."
      },
      "confidentialTransferAndCall(address,bytes32,bytes)": {
        "details": "Similar to {confidentialTransfer-address-euint64} but with a callback to `to` after the transfer."
      },
      "confidentialTransferAndCall(address,bytes32,bytes,bytes)": {
        "details": "Similar to {confidentialTransfer-address-externalEuint64-bytes} but with a callback to `to` after the transfer. The callback is made to the {IERC7984Receiver-onConfidentialTransferReceived} function on the to address with the actual transferred amount (may differ from the given `encryptedAmount`) and the given data `data`."
      },
      "confidentialTransferFrom(address,address,bytes32)": {
        "details": "Similar to {confidentialTransferFrom-address-address-externalEuint64-bytes} but without an input proof. The caller *must* be already allowed by ACL for the given `amount`."
      },
      "confidentialTransferFrom(address,address,bytes32,bytes)": {
        "details": "Transfers the encrypted amount `encryptedAmount` from `from` to `to` with the given input proof `inputProof`. `msg.sender` must be either `from` or an operator for `from`. Returns the encrypted amount that was actually transferred."
      },
      "confidentialTransferFromAndCall(address,address,bytes32,bytes)": {
        "details": "Similar to {confidentialTransferFrom-address-address-euint64} but with a callback to `to` after the transfer."
      },
      "confidentialTransferFromAndCall(address,address,bytes32,bytes,bytes)": {
        "details": "Similar to {confidentialTransferFrom-address-address-externalEuint64-bytes} but with a callback to `to` after the transfer."
      },
      "contractURI()": {
        "details": "Returns the contract URI. See https://eips.ethereum.org/EIPS/eip-7572[ERC-7572] for details."
      },
      "decimals()": {
        "details": "Returns the number of decimals of the token. Recommended to be 6."
      },
      "discloseEncryptedAmount(bytes32,uint64,bytes)": {
        "details": "Publicly discloses an encrypted value with a given decryption proof. Emits the {AmountDisclosed} event. NOTE: May not be tied to a prior request via {requestDiscloseEncryptedAmount}."
      },
      "isOperator(address,address)": {
        "details": "Returns true if `spender` is currently an operator for `holder`."
      },
      "name()": {
        "details": "Returns the name of the token."
      },
      "owner()": {
        "details": "Returns the address of the current owner."
      },
      "pendingOwner()": {
        "details": "Returns the address of the pending owner."
      },
      "renounceOwnership()": {
        "details": "Leaves the contract without owner. It will not be possible to call `onlyOwner` functions. Can only be called by the current owner. NOTE: Renouncing ownership will leave the contract without an owner, thereby disabling any functionality that is only available to the owner."
      },
      "requestDiscloseEncryptedAmount(bytes32)": {
        "details": "Starts the process to disclose an encrypted amount `encryptedAmount` publicly by making it publicly decryptable. Emits the {AmountDiscloseRequested} event. NOTE: Both `msg.sender` and `address(this)` must have permission to access the encrypted amount `encryptedAmount` to request disclosure of the encrypted amount `encryptedAmount`."
      },
      "setOperator(address,uint48)": {
        "details": "Sets `operator` as an operator for `holder` until the timestamp `until`. NOTE: An operator may transfer any amount of tokens on behalf of a holder while approved."
      },
      "supportsInterface(bytes4)": {
        "details": "Returns true if this contract implements the interface defined by `interfaceId`. See the corresponding https://eips.ethereum.org/EIPS/eip-165#how-interfaces-are-identified[ERC section] to learn more about how these ids are created. This function call must use less than 30 000 gas."
      },
      "symbol()": {
        "details": "Returns the symbol of the token."
      },
      "transferOwnership(address)": {
        "details": "Starts the ownership transfer of the contract to a new account. Replaces the pending transfer if there is one. Can only be called by the current owner. Setting `newOwner` to the zero address is allowed; this can be used to cancel an initiated ownership transfer."
      }
    },
    "title": "CERC20 - Confidential ERC20 Token (USDBagel)",
    "version": 1
  },
  "userdoc": {
    "errors": {
      "InvalidKMSSignatures()": [
        {
          "notice": "Returned if the returned KMS signatures are not valid."
        }
      ],
      "SenderNotAllowedToUseHandle(bytes32,address)": [
        {
          "notice": "Returned if the sender is not allowed to use the handle."
        }
      ],
      "ZamaProtocolUnsupported()": [
        {
          "notice": "Returned if the Zama protocol is not supported on the current chain"
        }
      ]
    },
    "events": {
      "PublicDecryptionVerified(bytes32[],bytes)": {
        "notice": "This event is emitted when public decryption has been successfully verified."
      }
    },
    "kind": "user",
    "methods": {
      "mint(address,uint64)": {
        "notice": "Mint new tokens (owner only)"
      }
    },
    "notice": "ERC7984-based confidential token for private payroll transfers.",
    "version": 1
  },
  "storageLayout": {
    "storage": [
      {
        "astId": 44431,
        "contract": "contracts/tokens/CERC20.sol:CERC20",
        "label": "_balances",
        "offset": 0,
        "slot": "0",
        "type": "t_mapping(t_address,t_userDefinedValueType(euint64)43791)"
      },
      {
        "astId": 44437,
        "contract": "contracts/tokens/CERC20.sol:CERC20",
        "label": "_operators",
        "offset": 0,
        "slot": "1",
        "type": "t_mapping(t_address,t_mapping(t_address,t_uint48))"
      },
      {
        "astId": 44440,
        "contract": "contracts/tokens/CERC20.sol:CERC20",
        "label": "_totalSupply",
        "offset": 0,
        "slot": "2",
        "type": "t_userDefinedValueType(euint64)43791"
      },
      {
        "astId": 44442,
        "contract": "contracts/tokens/CERC20.sol:CERC20",
        "label": "_name",
        "offset": 0,
        "slot": "3",
        "type": "t_string_storage"
      },
      {
        "astId": 44444,
        "contract": "contracts/tokens/CERC20.sol:CERC20",
        "label": "_symbol",
        "offset": 0,
        "slot": "4",
        "type": "t_string_storage"
      },
      {
        "astId": 44446,
        "contract": "contracts/tokens/CERC20.sol:CERC20",
        "label": "_contractURI",
        "offset": 0,
        "slot": "5",
        "type": "t_string_storage"
      },
      {
        "astId": 42164,
        "contract": "contracts/tokens/CERC20.sol:CERC20",
        "label": "_owner",
        "offset": 0,
        "slot": "6",
        "type": "t_address"
      },
      {
        "astId": 42312,
        "contract": "contracts/tokens/CERC20.sol:CERC20",
        "label": "_pendingOwner",
        "offset": 0,
        "slot": "7",
        "type": "t_address"
      }
    ],
    "types": {
      "t_address": {
        "encoding": "inplace",
        "label": "address",
        "numberOfBytes": "20"
      },
      "t_mapping(t_address,t_mapping(t_address,t_uint48))": {
        "encoding": "mapping",
        "key": "t_address",
        "label": "mapping(address => mapping(address => uint48))",
        "numberOfBytes": "32",
        "value": "t_mapping(t_address,t_uint48)"
      },
      "t_mapping(t_address,t_uint48)": {
        "encoding": "mapping",
        "key": "t_address",
        "label": "mapping(address => uint48)",
        "numberOfBytes": "32",
        "value": "t_uint48"
      },
      "t_mapping(t_address,t_userDefinedValueType(euint64)43791)": {
        "encoding": "mapping",
        "key": "t_address",
        "label": "mapping(address => euint64)",
        "numberOfBytes": "32",
        "value": "t_userDefinedValueType(euint64)43791"
      },
      "t_string_storage": {
        "encoding": "bytes",
        "label": "string",
        "numberOfBytes": "32"
      },
      "t_uint48": {
        "encoding": "inplace",
        "label": "uint48",
        "numberOfBytes": "6"
      },
      "t_userDefinedValueType(euint64)43791": {
        "encoding": "inplace",
        "label": "euint64",
        "numberOfBytes": "32"
      }
    }
  }
}